:1010000043C000005CC000005AC0000058C000008F
:1010100056C0000054C0000052C0000050C0000084
:101020004EC000004CC000004AC000009CC400003C
:1010300046C0000044C0000042C0000040C00000A4
:101040003EC000003CC000003AC0000038C00000B4
:1010500036C0000034C0000032C0000030C00000C4
:101060002EC000002CC000002AC0000028C00000D4
:1010700026C00000720D770DEF0D770DEF0D7B0D83
:10108000980DEF0DB70DC90D11241FBECFEFD2E0A3
:10109000DEBFCDBF11E0A0E0B1E0ECE3FCE102C0B7
:1010A00005900D92A635B107D9F721E0A6E5B1E08C
:1010B00001C01D92A537B207E1F723D1BDC5A0CF6E
:1010C0008823A9F09091F20091110DC09091E80051
:1010D0009B7F9093E8009091E80092FD06C09EB33C
:1010E0009111F9CF04C09091F1008150E9CF08959A
:1010F000EFE5F1E03581248193818281909358015D
:1011000080935901C9019093560180935701089526
:10111000CF93DF9300D000D000D0CDB7DEB7809161
:101120005F01843009F44AC028F4813051F08330E3
:1011300001F1C0C0853009F48EC0863009F4AEC01C
:10114000B9C080916001823008F0B4C0D1DF8091D5
:10115000600181110CC0809158019091590123E0E8
:10116000FC0120935700E89507B600FCFDCF85E011
:1011700007C080916001982F9D7F29F4B9DF89E035
:101180008093000197C0813009F094C0E0E0F0E066
:1011900084918F3F69F010925A01F0935901E093C6
:1011A00058018AE08093000185E080935D0182C050
:1011B0003196E11520E1F20759F77CC0809160017A
:1011C000833039F581E080935E0120916501309193
:1011D000660180916101232B61F0813009F06AC0C2
:1011E000909164018091630190935B0180935C0115
:1011F00061C081110BC09CE088E10FB6F894A895FE
:10120000809360000FBE9093600054C01092010163
:1012100051C081114FC0809161018F3F09F04AC0D8
:10122000E0E0F0E083E095E080935700E89507B6B2
:1012300000FCFDCF90935700E89507B600FCFDCF6A
:10124000E058FF4FE11520E1F20771F781E180934B
:101250005700E8952FC080E28C838CED8D838BEF57
:101260008E838EE1898383E98A8382E88B838091F0
:10127000610190916001911105C0FE01E80FF11D1F
:10128000848109C09130B1F4E1EDFFEFEC0FFD1F57
:10129000E80FF11D808180936A010CC0809160018C
:1012A000833041F480916101811104C08091620119
:1012B00080935A0126960FB6F894DEBF0FBECDBFBD
:1012C000DF91CF91089584B7877F84BF0FB6F894DC
:1012D000A895809160008861809360001092600002
:1012E0000FBE81E085BF82E085BF8AB180638AB985
:1012F0008BB180638BB916C31AD381E085BF15BE4D
:101300000895E1DF789480910101882311F070D471
:10131000FACF80915E018111FACFEEDFE0915B019F
:10132000F0915C0109958F929F92AF92BF92CF92FC
:10133000DF92EF92FF92CF93DF93809173019091B0
:101340007401909366018093650180916701882301
:1013500041F080916701815080936701811101C044
:101360005D9A80916801882341F0809168018150E5
:1013700080936801811101C05C9A80916E01833075
:1013800009F49DC178F4813001F1823009F0C8C1BF
:101390008091E800877F8093E8005D9883E08093E8
:1013A000670106C1853009F4A8C108F49EC18630E2
:1013B00009F0B6C18091E800877F8093E8005D9ACC
:1013C0005C9A82E080930001A0C15C9883E08093E6
:1013D00068018091E800877F8093E80080915E013A
:1013E000882329F095DE5D9A5C9A10925E018091C7
:1013F000650190916601009741F12091E80022FD7E
:1014000004C02EB32111F9CF8BC12091F10020939C
:101410005F0101979093660180936501E0E6F1E03A
:1014200025E02E0F8091F200882371F08091F10069
:101430008193809165019091660101979093660177
:10144000809365012E13EECF63DE8091000185301D
:1014500009F0A6C08091650190916601892B21F465
:1014600082E0809300019CC08AE12ADE80915801CD
:101470008F7126DE209158013091590180915601DB
:10148000909157010196EC01C21BD30B8091600132
:10149000811174C0CE0196958795690120915A01FA
:1014A000E22EF12C4601570120E0A1E0B5E0C3E0B7
:1014B000009709F441C03091F2003323C9F001973D
:1014C0006091F1003091F100462F532FF6010A018F
:1014D000A0935700E89511242F5FB701A6014E5F36
:1014E0005F4F6F4F7F4F6A017B01203471F40FC053
:1014F0003091E8003B7F3093E8003091E80032FD06
:10150000DECF3EB33111F9CF0BC1009789F6F4015C
:10151000B0935700E89507B600FCFDCF009709F49B
:10152000C7CFFA01C0935700E89507B600FCFDCF7E
:101530004A015B0120E0BCCF809156019091570198
:10154000909359018093580181E180935700E89569
:1015500025C08091F2008823A1F06091F1002197CD
:10156000809158019091590159D3809158019091DF
:10157000590101969093590180935801209749F79A
:101580000DC08091E8008B7F8093E8008091E80097
:1015900082FDE3CF8EB38111F9CFC2C080E190DD2F
:1015A0008091E8008B7F88C08EB3882309F4B8C08F
:1015B0008091E80080FFF8CF80910001893091F0A0
:1015C0008A3059F480916001813039F4909158014A
:1015D000809159019093F10002C080916A0180933B
:1015E000F10067C02091580130915901C091560116
:1015F000D09157012196C21BD30B809160018111BC
:101600002EC0D695C795C90120915A01A22FB0E0EE
:101610002197E0F02091F200203259F0FC01259151
:1016200034912093F1003093F1000296A11DB11D79
:10163000EFCF2091E8002E7F2093E8002091E80072
:1016400020FDECCF2EB32111F9CF6AC08091560155
:1016500090915701909359018093580127C082308F
:1016600029F5209719F18091F200803291F0809154
:10167000580190915901CAD28093F100809158018C
:1016800090915901019690935901809358012197A7
:10169000E8CF8091E8008E7F8093E8008091E80099
:1016A00080FDE5CF8EB38111F9CF3AC082E08093FF
:1016B00000018091E8008E7F8093E80026C0809131
:1016C000E800877F8093E80080915D018093F100BE
:1016D0001092F1001092F1001092F100809100013F
:1016E0008093F1001092F100E4CF8091E800877FB1
:1016F0008093E80010925D0108C08091E800877F28
:101700008093E800809100016ACFDF91CF91FF9034
:10171000EF90DF90CF90BF90AF909F908F9055C08B
:10172000DF91CF91FF90EF90DF90CF90BF90AF907F
:101730009F908F900895292F30E02230310559F085
:101740002330310569F021303105C1F482E190E0A8
:1017500023E431E017C08BE190E028E231E012C0D1
:10176000811106C08091240190E024E231E00AC09A
:101770008091020190E022E031E004C080E090E03E
:1017800020E030E0FA01318320830895EBEEF0E0B1
:10179000808181608083EDEEF0E010826093EC0048
:1017A00040838091EE00881F8827881F089510923B
:1017B000F4001092F0001092E8001092ED00EBEEB1
:1017C000F0E080818E7F8083089580916D0187FF96
:1017D0000FC08091E80082FD04C08EB38111F9CF63
:1017E00010C08091E8008B7F0AC08EB3882349F037
:1017F0008091E80080FFF9CF8091E8008E7F809390
:10180000E80008952091730130917401261737077D
:1018100048F06115710539F42091E8002E7F20937E
:10182000E80001C0B90130E06115710561F1209156
:10183000E80023FD37C02091E80022FD2DC02EB323
:10184000222391F12EB3253089F12091E80020FF69
:10185000EBCF2091F200FC01CF016115710549F039
:10186000203238F481918093F100615071092F5F2B
:10187000F3CF31E0203209F030E02091E8002E7FF4
:101880002093E800D1CF3111D2CF06C08EB3882388
:1018900059F08EB3853051F08091E80082FFF6CF89
:1018A00080E0089581E0089582E0089583E008953E
:1018B00054D056D01EBA10926B0184E089BD89B510
:1018C000826089BD09B400FEFDCF8091D800982FB9
:1018D0009F779093D80080688093D80080916300B0
:1018E0008E7F809363008091D8008F7D8093D80095
:1018F0008091E0008E7F8093E0008091E1008E7FF8
:101900008093E1008091E20081608093E200809109
:10191000E100877F8093E1008091E20088608093FE
:10192000E2000895C5DF81E080936C010895C0DF77
:10193000E0EEF0E0808181608083E8EDF0E080817E
:101940008F7780830AD00CD019BCE3E6F0E0808169
:101950008160808310926C0108951092E2000895D6
:101960001092E10008951F920F920FB60F9211246A
:101970002F933F934F935F936F937F938F939F9397
:10198000AF93BF93EF93FF938091E10080FF1BC063
:101990008091E20080FF17C08091E1008E7F8093EC
:1019A000E1008091E2008E7F8093E2008091E2006E
:1019B00080618093E2008091D80080628093D8009B
:1019C00019BC1EBA14D18091E10084FF29C0809116
:1019D000E20084FF25C084E089BD89B5826089BDAD
:1019E00009B400FEFDCF8091D8008F7D8093D80090
:1019F0008091E1008F7E8093E1008091E2008F7EF4
:101A00008093E2008091E20081608093E200809107
:101A10006B01811102C081E001C084E08EBBE7D080
:101A20008091E10083FF22C08091E20083FF1EC00D
:101A30008091E100877F8093E10082E08EBB10926D
:101A40006B018091E1008E7F8093E1008091E20044
:101A50008E7F8093E2008091E20080618093E200BB
:101A6000A6DE42E260E080E091DEC1D08091E1003C
:101A700082FF0AC08091E20082FF06C08091E100EF
:101A80008B7F8093E100B3D0FF91EF91BF91AF9135
:101A90009F918F917F916F915F914F913F912F9186
:101AA0000F900FBE0F901F9018951F93CF93DF9349
:101AB00000D0CDB7DEB7EDE6F1E088E08E0F909173
:101AC000F10091938E13FBCF80916D01E0916E0137
:101AD0004E2F50E04A30510508F081C0FA01E65C13
:101AE000F74F8EC08D7F803809F079C069C08D7F37
:101AF00009F466C074C0811172C010916F018091A9
:101B0000E800877F8093E80060DE8091E80080FD38
:101B100004C08EB38111F9CF53C0812F8F7711F498
:101B200092E001C093E09EBB80688093E30048C0D0
:101B30008058823008F053C0AE014F5F5F4F609114
:101B4000710180916F0190917001F5DDBC01892BCD
:101B5000B9F19091E800977F9093E80089819A818C
:101B600051DE8091E8008B7F8093E80029C08038A7
:101B7000B1F58091E800877F8093E80080916B0148
:101B80008093F1008091E8008E7F8093E8001DDE55
:101B900017C0811124C090916F01923088F4809118
:101BA000E800877F8093E80090936B010EDE8091C0
:101BB0006B01811102C083E001C084E08EBB17D0AD
:101BC0008091E80083FF0DC08091EB0080628093DC
:101BD000EB008091E800877F8093E80002C0A3DBE0
:101BE000EFCF0F900F90DF91CF911F91089508953F
:101BF0008EB3882321F08091E80083FD56CF0895AD
:101C0000EE0FFF1F0590F491E02D0994F999FECF96
:101C100092BD81BDF89A992780B50895262FF9992C
:101C2000FECF1FBA92BD81BD20BD0FB6F894FA9ABF
:0C1C3000F99A0FBE01960895F894FFCFBA
:101C3C0002012003410072006400750069006E000F
:101C4C006F00200055006E006F002000440046001D
:101C5C00550000000403090409021B000101008067
:101C6C00320904000000FE010200092103000000FB
:101C7C000C00011201100100000020EB03F72F00F3
:061C8C0000000100010050
:0400000300001000E9
:00000001FF
